:03000000020542B4
:0C054200787FE4F6D8FD75812102058960
:1006120041542B43574A41503D22313233222C223E
:1006220051415A584356424E4D313233220D0A003F
:1006320041542B4349504D55583D310D0A00415408
:100642002B4349505345525645523D312C3230309E
:04065200310D0A005C
:0C06BD0082000000826800008202000041
:10000300D3EF9400EE940040147D6E7C00ED1D70E0
:0D001300011CED4C70F7EF1F70E61E80E33E
:0100200022BD
:10065600E4FFFEFDFC7873F208F274042FF8E2B4AE
:100666005206AC06AD07800B0FBF00010EEF6464A7
:070676004E70E7AE04AF0572
:01067D00225A
:030023000205CE05
:0F05CE00C0E0C0D075D000C000C005C006C00797
:1005DD00E4FF309823AD99C2980F786808E224049F
:1005ED00F8EDF27869E22401F218E23400F2EF60DE
:0805FD00077802E4F20804F2A1
:0D060500D007D006D005D000D0D0D0E03214
:1006A500758920758DFD758BFDD28EC29FD29ED228
:0806B5009CD2AFD2ACD2992215
:0906CA00B2977FC87E0002000314
:10038100E4786DF208F208F208F208F208F21206B7
:10039100A57F96FE1200037BFF7A06791212008870
:1003A1007F907E011200037BFF7A0679321200886A
:1003B1007F647E001200037BFF7A06794012008879
:1003C1007F647E001200037803E2700218E270037A
:1003D1000204A17872E2700218E260030204A1B281
:1003E10097C2AC786808E22404F8E4F21206567861
:1003F1006FEEF208EFF2E4786DF208F2786DE2FE4A
:1004010008E2FFC39403EE6480948050247871E481
:10041100F20804F2786F08E22F2404F8E2FE746A0D
:100421002FF8EEF2786EE22401F218E23400F28045
:10043100CB786AE26452702D786CE2FF18E2B5075E
:1004410024EF24CD601024FE601024FE60102406E9
:100451007010C290800FD290800BC2928007D2920E
:1004610080031206CAE47868F208F27868E2FE08AE
:10047100E2FFC39464EE9400501474042FF8744B9B
:10048100F27869E22401F218E23400F280DDE478C6
:1004910068F208F27802F208F27871F208F2D2AC4E
:0A04A1007F0A7E001200030203C868
:10054E00020381E493A3F8E493A34003F68001F23F
:10055E0008DFF48029E493A3F85407240CC8C333AE
:10056E00C4540F4420C8834004F456800146F6DF7D
:10057E00E4800B01020408102040809006BDE47E4A
:10058E00019360BCA3FF543F30E509541FFEE49372
:10059E00A360010ECF54C025E060A840B8E493A339
:1005AE00FAE493A3F8E493A3C8C582C8CAC583CA64
:1005BE00F0A3C8C582C8CAC583CADFE9DEE780BE1C
:0106C9000030
:10002600E5082476F8E20508227873300702787628
:10003600E475F0011205030204AB2000EB7F2ED21B
:10004600008018EF540F2490D43440D4FF30040BB2
:10005600EF24BFB41A0050032461FFE509600215BE
:1000660009050CE50C7002050B30070D7873E47575
:10007600F001120503EF0204F102067E7403D207B3
:100086008003E4C207F5087873120513E4F509F551
:100096000BF50CE50960077F2012006180F5750AF3
:1000A600FFC201C200C202C203C205C206C20812D2
:1000B600002FFF700D3007057F00120072AF0CAEE7
:1000C6000B22B4255FC2D5C20412002FFF24D0B480
:1000D6000A00501A75F00A780930D50508B6FF01EE
:1000E60006C6A426F620D5047002D20380D924CFF2
:1000F600B41A00EF5004C2E5D204020271D20180A4
:10010600C6D20080C0D20280BCD2D580BAD20580C9
:10011600B47F201200612002077401B5090040F186
:10012600120026FF120061020099D208D2068095BD
:10013600120026FB120026FA120026F94A4B700618
:1001460079427A037BFF20022EE509602A7E008E23
:10015600827583001204C460060EEE650A70F0C252
:10016600D5EBC0E0EAC0E0E9C0E0EE1202B8D0E0AC
:10017600F9D0E0FAD0E0FB1204ABFF60AAEBC0E0D6
:10018600EAC0E0E9C0E0120061D0E02401F9D0E065
:100196003400FAD0E0FBE50A0460DCD50AD9808792
:1001A6007BFF7A0279B4D202809C791080027908AA
:1001B600C206C2088008D2D5790A8004790AC2D557
:1001C600E50A047002F50AE4FAFDFEFF120026FCB9
:1001D6007B08200113120026FD7B1030000A120056
:1001E60026FE120026FF7B20EC3382D592D55013D3
:1001F600C3E43000069FFFE49EFEE42001039DFD5C
:10020600E49CFCE4CBF8C201EC700CCFCECDCCE87C
:1002160024F8F870F38017C3EF33FFEE33FEED33A7
:10022600FDEC33FCEB33FB994002FB0FD8E9EB30D6
:100236000105F8D0E0C448B201C0E00AEC4D4E4FCB
:1002460078207B0070C2EAB50A0040BCC0E012020A
:10025600BAD0F0D0E0200104C4C0E0C4B201C0F0BE
:1002660012004AD0F0D5F0EB02009912051C0136B7
:100276005301B05801074C01034201B44F01BC447D
:1002860001BC49011C4301C25501A64601A6450110
:01029600A6C1
:1002970047036250010B2D010F2E01322B0113234F
:1002A700013020034B2A00CB480000012A3F3F3F83
:1002B70000790AA2D5200314300509B910020404F5
:1002C700B9080104A2D52006025001042002689251
:1002D70002B509005034C0E07F203003197F30A2F7
:1002E7000272067205500F120311C202C206C2053E
:1002F700C2087F30800F300503E9C0E0120061308B
:100307000503D0E0F9D0E0B509CC3005177F30B947
:10031700100C1200617F583004077F788003B908FA
:10032700031200613002057F2D0200617F20200843
:10033700F87F2B2006F322920280CF286E756C6C13
:100347002900D2011200263001F8C201780930D500
:100357000108F60200CB2D5043495812002624030A
:10036700B405004001E490035D93120052743A1201
:0A0377000052D2037509040201B020
:1004AB00BB010689828A83E0225002E722BBFE024F
:0904BB00E32289828A83E4932282
:1004C400BB010CE58229F582E5833AF583E02250ED
:1004D40006E92582F8E622BBFE06E92582F8E22237
:0D04E400E58229F582E5833AF583E4932251
:1004F100BB010689828A83F0225002F722BBFE01EA
:02050100F322E3
:10050300FAE2FB0808E2F925F0F218E2CA3AF2220D
:09051300EBF208EAF208E9F22219
:10051C00D083D082F8E4937012740193700DA3A36E
:10052C0093F8740193F5828883E473740293686082
:06053C00EFA3A3A380DF82
:10067E00EFB40A07740D120689740A309811A899FE
:10068E00B8130CC2983098FDA899C298B811F630DC
:07069E0099FDC299F59922B4
:00000001FF
